:100000000C9497080C94C4080C94C4080C94C4086D
:100010000C94C4080C94C4080C94C4080C94C40830
:100020000C94C4080C94C4080C94C4080C94C40820
:100030000C94443A0C94C4080C94C4080C94C4085E
:100040000C94C4080C94242A0C94C4080C94C4087E
:100050000C94C4080C94C4080C94C4080C94C408F0
:100060000C94C4080C941B3A0C94F1390C94C408F9
:100070000C94C4080C94C4080C94C4080C94C408D0
:100080000C94C4080C94C4080C94C4080C94C408C0
:100090000C94C4080C94C4080C94C4080C94C408B0
:1000A0000C94C4080C94C4080C94C4080C94C408A0
:1000B0000C94C4080C94C4080C94C4080C94C40890
:1000C0000C94C4080C94C4080C94C4080C94C40880
:1000D0000C94C4080C94C4080C94C4080C94C40870
:1000E0000C94C4080C940C160C9421250C94922B9F
:1000F0000C94512C0C9462240C94B0270C946B2516
:100100000C94E5390C949E2D0C9454170C94672193
:100110000C9472310C947E170C94D7130C94101A13
:100120000C942A160C946F2D0C94ED1E0C94CA2D71
:100130000C94121C0C94CF1F0C94C5310C94B61463
:100140000C940F180C94A12B0C94661A0C94792023
:100150000C942D190C948E1A0C943B110C9446118E
:100160000C94681C0C94102E0C9462340C94772B15
:100170000C945D200C9458300C9442130C94A029DC
:100180000C94A31F0C9458270C948E280C94A93619
:100190000C9403250C94BD240C94CE230C94D11400
:1001A0000C946A270C94BF300C9465110C94723433
:1001B0000C94D0300C94D2290C947A320C948D3952
:1001C0000C9473260C9488260C9499150C94002D8D
:1001D0000C946E220C9494150C9441200C941D2CBC
:1001E0000C9400270C940F230C944A320C948A39F7
:1001F0000C9404250C94C9360C94F61B0C94AD2F6A
:100200000C94AB360C941E240C9418320C94E6110A
:100210000C94A92C0C9438280C948F2C0C94061850
:100220000C94A9260C9422290C945F170C944A294B
:100230000C9418330C94D2390C94E4210C94B11220
:100240000C94651C0C949C1B0C94D0120C94F31908
:100250000C94ED1C0C94D6220C94EC2B0C94671D82
:100260000C94F0280C9420320C9482300C941A1BBD
:100270000C9413150C946B2304000200000400047A
:10028000000004070404000004040400000000004F
:100290000000040000000000040000020200000052
:1002A000020407000407070400000000040400041F
:1002B000040000040002020404040404000004001A
:1002C00004040404040404000400020304000404FD
:1002D000000400040000040004000000000000000E
:1002E0000001020102D702CA2D0200010000001025
:1002F0002E0300010000008A390400010000008D77
:1003000039050001000000D2390601000196109C59
:100310001B070001000000121C08010001D602F6B4
:100320001B09000100000003250A0201019110735E
:10033000260B030103D30204250C020102D1029E05
:100340002D0D020002D70294150E020002631099CF
:10035000150F030003D3022A1610020002D1020C6B
:100360001611050005CC0221251202000263106F50
:100370002D13010001D602512C14020002D1026695
:100380001A150200026310F31916040004C8028E45
:100390001A17050005C302101A18010001D6021D24
:1003A0002C19080008BB02A92C1A030003B8028FFD
:1003B0002C1B02000263108E281C020002D102389E
:1003C000281D0400047E10F0281E010001D60258EA
:1003D000271F080008B002183320020002D1026A69
:1003E00027210400036510203222030002821062DC
:1003F000342303000282107234240400045F107A54
:100400003225010001D602183226030003AD024A4C
:100410003227060006A702D11428030003B80213EE
:100420001529050003A402D0302A040003A102729A
:10043000312B0300028210BF302C0400045F10C572
:10044000312D0300039E0206182E0300038410EDD5
:100450001C2F0600069802671D3006000692020F48
:100460001831010001D6027E1732030003D3022D9A
:10047000193302000263105F17340300028210E692
:1004800011350400047E10002736030003B802A9CA
:100490002637010001D602651138030003D302D7C5
:1004A0001339020002631046113A0300028210B1B0
:1004B000123B030002821042133C0600069202D057
:1004C000123D030002821041203E03000282105DB3
:1004D000203F0800088A027920400200026310D6FB
:1004E000224105000585026B23420400048B10A302
:1004F0001F430200026310CF1F4404000382026EF8
:1005000022450500057D020F2346010001D602ADFC
:100510002F47040003741058304805000578028204
:1005200030490400045F10A0294A030003AD02D241
:10053000294B0001000000E5394C000500000028AF
:10054000292A2B2C2D2E2F50515253545556577863
:10055000DAA559796FDBC815FF2AB30282760BDB67
:10056000D0454976913F7C659B6E9C78A3B8295015
:1005700014044D8EA481792D87F4D185BF7BDF31A2
:10058000172925BB680304E2CCBC37C73B7EEFF0DC
:100590006FA3FB4EE559FC281BADAA528FCE46DB5C
:1005A000343D137FFEE9F2F247119DCC4FC6E25E67
:1005B000955DAB728DB31FEFC48519FE28A627D3B6
:1005C000C5C9743C598C27D36874344AABA248CA55
:1005D0000C36F96D94E4799526AD8C2B956991567E
:1005E0005DD9BE7D938ECE56477062DBC25171924B
:1005F0003E085885E9607D310F08B2CC12D495A62B
:100600001F55BE7DD389BACBF3B8AB9961E1197E92
:10061000ED64F3E2F6840B3C207523751BB72A7D4D
:10062000D03C6A9BA4D4856A637BAA5025BCDF9C1E
:100630001FC13B729934B1DE756D563D95A3B32948
:100640003EADDCA82DDCE8399FCD237B84AE55CCB4
:100650009FA3B368E2A9CA24AFB6B12ADDEDE9DAF7
:10066000A3B399DFC95CD952F0300EE4B074A4345E
:10067000299BFE663D192CE78E38535BD526795CA5
:1006800075ED80E131C93B89E34C6E922E6F633783
:100690005124CF71D635490B1640F79CF8C325E895
:1006A000B3ADEADE5E69EFF0E9C211EFB2F97CB9F1
:1006B0001A5BE246C7E66C693FB2B9FB8ADCD7C277
:1006C0007D2DDD97CC9317A73410C7CC1DA2A6A90A
:1006D0003D003E4190AC56B035FC059B017D33D3C7
:1006E000DC8BA5A8BBD369340E199DE2FC634B5982
:1006F000D5EA59E603C965499BC45AFD070ED8756A
:10070000E00E6D8C120B2C4A4B98526570DFA5D70A
:1007100074FD541CD046FA0256E6F730BAD8754339
:10072000EDC0CC9E7AE6FEC66081C38DD1B15AF58C
:1007300028E39DDAEEE885B355480FE6B9CDE5BE6E
:10074000090BB716B72FB564D9CC7B9CD6250E31D3
:100750009BA5B8D0DBB76FFE0218309BF5789F548D
:10076000BB0331C4A9B579A008DED12E4FA74E3DF9
:10077000A9331C9DE60FEE5B65EEF3A54CE3BE8D41
:1007800088B4C8E23DB3190727C8BAF65E84C3D857
:100790005873A61AFBC94840C49EAACBB50C369D17
:1007A000FA87B53BD9141538687D50A2E1B217EA33
:1007B000DC5FAA2DD22E699C6D34CFF19E778BD64B
:1007C0004DA2E5B5AA90FCB453BF4B83F2F062850D
:1007D000FD3379DF813D57F5E8ECD48E60972DD954
:1007E00032EB67E2C81A9900D036996CF03CF420DD
:1007F0004681A925786A542BF728D0689910A04F14
:1008000016B2D9CA327D89112EE01230C5D011EF4F
:10081000AA42EE81B24E8A3A7400337690DC076DBC
:10082000B8BA872B7EAE9371A3B65BD9E02334FAB6
:10083000072252E40FA79000774A5AE9043405AB27
:10084000DE28006970E9986528D22665B11E8DB64C
:10085000E0CD744FB07F33221AF06A1E76356A01FC
:100860001479343288176B382F060B74808EDF2C86
:10087000E7C57440862AB0645E1D0B1022C2525137
:10088000656AF31283AEDD5E8D249712262EC10DAC
:100890007095D9E6868D75D8A7C7B938970634A65E
:1008A0004C6874393C7E0E0A53992C5B385C549B1F
:1008B0000D9C424EE502129C63E1919EE1A4B91C9D
:1008C000072B5D9D794973D4DE75C1314BD88655B0
:1008D0003208A587A33568603C60205D761E44E63B
:1008E000A78E601876FF47632BBCB119F4F5234837
:1008F0001DB6C0B893E94310AC67EE558358ED6E52
:100900005057E0CFC3F3837031B31B0C02D537C50A
:10091000B218300CC5124596600FF2BF9118A14D68
:1009200003C2AB0DBF2972573A0472DFD823105DA2
:100930004F723C0070059FCB42C1B1F23A79286FEB
:1009400071675461649D44966510581DB9D316189B
:10095000C7C2122392BBE88F2A62F0B206BEA3CCB4
:10096000017E15C003780AC574D04B643E899F513F
:1009700061781E30808D224DF88641D205F79EEDBC
:1009800011D10B2811707BF6B202605A3053299FA7
:10099000CD15205639E7550DC3D98489AC3C7E2747
:1009A000C300A9C0AB82608FE9F0C6DBAC77D66824
:1009B000CA7481BB07ABB3B95D6D31090BC39FC965
:1009C000C900CA64909B01CBC2B3E86AD33E258DAF
:1009D0000C790BA52B1BEC8A4AAB4359C0DEA6F35E
:1009E000156FFAED77CCF0BD94607C0FA7A3D33ED2
:1009F000D561988EF0344E25628C0500710A133350
:100A0000E77893534F401108AD97639470212B08FA
:100A100060C0015B9A44A0276A426A07E45C152023
:100A20002973A30CD1650F7800984440D7860986B6
:100A3000ACABC64437F65E1A3B2391CFB502958422
:100A4000B1F4D4ED3478454804819191FF901F07AB
:100A50003E307FB5490BD688E75797F1CDF93F3146
:100A600015C19CEAE26E1DDFBEFFB846C4823AF4AF
:100A7000F66276747B3185FF9351B0D83ED1E2D5D2
:100A8000F8E8F60A172E3F7CBAFC397EF7F9FA1718
:100A9000749731FD3B1ADD5CDE0155D216729B4C1A
:100AA000A3C518086FBFDEF06953C4C6CFD797D768
:100AB000EFFF711D7F7DFFF1EAD35754DB1427D779
:100AC000D79F61926F211B95E478D6359C758D6711
:100AD000C1EAFBF30FF1C5F9DD156EC347ADBF9C4D
:100AE0007F59C7EBBB9BF52FB0B2BEC695C52B6631
:100AF000201DE44494B553456C8A15FCA4378C81C1
:100B0000066C1AC7B7E7E3D1D9BFC647AB7FC33579
:100B10002FF07BC5DF97F80D2040832B1C40EE4261
:100B2000836B1C403D49837738981BFE9F68603675
:100B3000F81B0E22B3C1DF71B0343C3FD33186E7DE
:100B4000030D90E7B5070D90B252313F99CD667015
:100B5000E3A351A2A3F17C99513AD0E63282CAFFB5
:100B60001E1E6CB8CCF3487FF83C8C490A4DB0810E
:100B7000D433569951BA20E3D87030E502F23C479D
:100B80001B7F11362DCB18302F935294552BC0D884
:100B9000050286008C63601364B3E269A7E09B6D75
:100BA0004F8B1ABC074E6244B6BC9D9614DB9A89E3
:100BB000D8548D0033F8AB1D2B8DAB19CDD394E6F3
:100BC000840358FFD46240809A630B1782443E69C5
:100BD000913A31D7E40A8B334D43AC91144D9EF3D7
:100BE000619EA5D8415BC34D65296C11E2F8C1E84F
:100BF0002EB96B22EAA4019313B269AA86524DBBA7
:100C0000D0480861BAA5DEC9BB04DE9B89B6128450
:100C100014580B938373A87BCF0156D8E682EF75E7
:100C2000709C6328B454A65D4359AE9F0332BC4AFE
:100C3000524808925CECD8C5A27A94F63602EB6171
:100C4000F468BFECAA67572F73ADB3B76E924477C1
:100C50003E660196080428D8ECB0FCB0B358E65ABA
:100C6000DC40B009E64D6E93EE546D1867F33E011B
:100C7000A8A0ABFD9B3407404BD1CB6E825D10F832
:100C80006E9267B4D395152897AC3752EB642B0559
:100C9000543B108BACC240FC374AA33569480FB3B4
:100CA0002EC76A0B9831740B838A64F8F251A2261E
:100CB000306A7F9B6197341919BBA1C6CED10D8ACA
:100CC0009FB219015FCD26AF9E381DFA08569E08C7
:100CD0007E0EBA17A10A363FC205B07B5EC04655EC
:100CE000B8A0CA9A9306AE1168A9C49BFAE919A1E3
:100CF000A7B3FEBAA9B620CC02AE9EE0DB361075D3
:100D0000E196206C898E8B19F967691E85C68A9ECB
:100D100005C7A0A8410D68C958B5AC1DC19E74C4D3
:100D200093CA73084629ECD76B7F7078F59C4E42C6
:100D3000DFE1C0E47C0D5EC83AA40B20852ABAC26C
:100D4000CE59E7001DAE6D8B838A2DD88CFC963072
:100D500028EC07AE8D23B755253609BD8E5F86B5C5
:100D6000E597D0A4506440484D1D0ECC5F481EC886
:100D70000971584BAA95EF4ADDD5188B253B3521D3
:100D80002966365F9336DD65D596A5F8032765D4C9
:100D90005C852AA42B1F60634404EED905F3DA2F87
:100DA000C0ABD847003234201D7A304479A82735AB
:100DB000EB37E8D4306055650E18F7081B24F7B9F7
:100DC000852EF7FC532A2485493EB81D35A85CCFF3
:100DD000C427004F0880F7982F6CB073A17FE0CE36
:100DE00004F5831D8E9A2E71C6ED088DF5670908EE
:100DF000C12693C2321994CB8F085A487479D260B5
:100E0000ECC0D6D681CC03F5C5D68D6D2703B7ECE3
:100E10003B986F4168DA6BCD606C82F4603659455F
:100E200011853A335850ACE3C12222E5C360B15872
:100E3000C2F7ECF595EA831AB04172DBDB14A961C5
:100E4000F2A81131CB540E4AE15390FAC19AD65709
:100E500032A6FEB2D9195701E16EF71DF91E716D68
:100E6000D4A6C2DF5C05BD6D4CF731B371B571AF6F
:100E700015C23B1E2A9C56419FBEC7910485AFA058
:100E8000157ECD31E225D7473E0D5DB99E38044F22
:100E9000D345A10752B305E7AC5551F60FA816DEAE
:100EA0007B453D54AAA7BF776BC3613E627FFA3191
:100EB0002616B6C3A5C1FD5CC36A35F70DA2DECE0A
:100EC000BB0A2AD8EDFE1961FF09D817BEE7125BED
:100ED000F5FBB498C746C913DF5609485D7F85CD39
:100EE000E10449C1E402818861EEC4325982AFD97C
:100EF0008AFF0FD8D8317ADCC10EC1FF6564DDBE30
:100F0000911DCFC2069191B7BD5C97A6D4934F5166
:100F100029F0029042D8895C6169EC71D7366D0E78
:100F20000B601526A87F4804D39023A8AF4206D0B3
:100F3000D4C1A2784FBD61E323D4F3BC5F84FE8E9D
:100F400059ACA8480440A36C75B9E054597B5BD6F2
:100F50005D617EF4AFDC210ACACA41CDC96D364855
:100F6000B957D100D7FA6A38E8EC1D4726D2CDE947
:100F7000D817A2FBF7C712943DBD575C7AE7491317
:100F800057E91E6CCC86C0400523E5C5FC578A2E68
:100F90005CC4D2C1FC4112CAAFC7F1C96472323E0F
:100FA0009E8EA3E36DB41967D3086A8ED7FF02FE45
:100FB0004DA072640A000020002300260029002CA6
:100FC000002F003200000100000301060109010F9B
:100FD000470044004500800135480044004500209A
:100FE000010D88008000810080000E8A0080008151
:100FF0000020000F8C008000810008000CB300B0BE
:1010000000B10080033EB400B000B100200323987B
:1010100000900091008000249A0090009100200030
:10102000259C009000910008003BA800A000A100B2
:1010300080003CAA00A000A10020003DAC00A00060
:10104000A10008005B28012001210180005C2A0129
:101050002001210120005D2C012001210108000454
:101060000000000404040407040000020400020459
:101070000204000704020704000002040402040042
:10108000000404070400020404040004040004042F
:101090000107040004020000000000000006000236
:1010A000026617045F10650A026310644002821032
:1010B00063400365106240037410611F076810608D
:1010C000400374105F0B026F105E400371105D40AF
:1010D0000374105C1C0777105B400282105A1404E2
:1010E0007E10594002821058100384105711048753
:1010F000105611048B10550D028F10540B019610D1
:1011000053400191105212049210510B019610504D
:10111000100297104F150399100040029C104E0EBC
:10112000029E104D0901A0104C0600000000112481
:101130001FBECFEFD1E2DEBFCDBF00E00CBF14BEBB
:101140000FB6F894A8958091600088618093600044
:10115000109260000FBE12E0A0E0B2E0E2E0F6E71D
:1011600000E00BBF02C007900D92AA32B107D9F779
:1011700023E0AAE2B2E001C01D92A739B207E1F76D
:101180000E94552B0C94FF3A0C940000CF93DF93F0
:10119000CDB7DEB769970FB6F894DEBF0FBECDBFEF
:1011A0000E94422B6B017C019E012F5F3F4F190172
:1011B000AE01475F5F4F5E874D878091260288238F
:1011C00009F4ADC50E94422BC61AD70AE80AF90AEB
:1011D000F89480912602882351F08FEF80932602A5
:1011E00078940000F894809126028111F9CF7894C8
:1011F0000E94422BA7019601260F371F481F591F37
:101200002B8B3C8B4D8B5E8B81E0809326028091F3
:101210004D02882309F43EC010924D028FEF89835E
:1012200068E577E2C1010E94411C8C01892B91F194
:10123000D80156968C9182FFF3CF0E94422BF894EE
:10124000F80137892689422F4B7F468B78949F93EC
:101250008F937F936F931F923F9321701F922F93D1
:1012600089811F928F932CEE30E13F932F930E9440
:10127000C4346DB77EB7645F7F4F0FB6F8947EBFFE
:101280000FBE6DBF68E577E2C1010E94411C8C0171
:10129000892B71F680914E028823F9F010924E024C
:1012A0008FEF89836AE677E2C1010E94411CFC014D
:1012B000892B99F0958D868D9813F4CFF894858DB0
:1012C000968D891709F414C678946AE677E2C1010D
:1012D0000E94411CFC01892B69F780913802882308
:1012E00009F450C0109238028FEF8B879E01255F62
:1012F0003F4F290163E175E1C2010E94411C5C017D
:10130000892B09F43FC0D50159968C91599780FFDC
:10131000F1CFF894F5016480758086809780818D87
:101320008E7F818F789458968C91813009F43FC4D8
:1013300008F41FC4823009F4DFC38330D9F6CB84AC
:1013400019821A82910142E061E0F5018489958950
:101350000E94683309811A81102701271027F02F76
:10136000F670EF2E20E030E0B401A301C5010E9429
:101370003C1563E175E1C2010E94411C5C01892BAF
:1013800009F0C1CF809139028823B1F1109239025E
:101390008FEF8B879E01255F3F4F290152E0D52EAD
:1013A0006DE2E62E78E0F72E6FE577E1C2010E944C
:1013B000411C8C01892B01F1D80152968C9182FF3E
:1013C000F3CF80FFF2C0C8010E94CC36F801D28A68
:1013D000E982FA82910142E060E0848595850E946D
:1013E0006833C8010E9456186FE577E1C2010E9478
:1013F000411C8C01892B01F780914C02882309F450
:101400005EC010924C028FEF8B879E01255F3F4F8D
:10141000290177247A9469EA76E2C2010E94411C8C
:101420008C01892B09F44BC0D80150968C9182FF16
:10143000F2CFF894F80184809580A680B780F48874
:10144000108A148A789480859185A285B385881A3C
:10145000990AAA0ABB0AD801FF2091F052968C91F2
:10146000F801E80FF11D758A168A178A8D5FF80159
:10147000828B8E3208F093C0FA94D801F110EECF2F
:1014800051968C91882309F4D8C2813009F4BBC3EA
:10149000823009F4D9C4D80152968C9190E08E978D
:1014A0000CF4B9CF6B85C8010E94DA2669EA76E2AE
:1014B000C2010E94411C8C01892B09F0B5CF80919B
:1014C0003702882309F4BEC0109237028FEF8C8751
:1014D00030E3632E42E0742E53E2952E6AE6C62E68
:1014E00074E0872EE0E44E2E66E471E1CE010C96A6
:1014F0000E94411C7C01892B09F4A4C0F701868954
:1015000082FFF2CF80FF56C0C7010E94CC36D701C0
:1015100056967C92569799821A821C96ED91FC9170
:101520001D97A10162E080810E945A1EC9828A82B1
:10153000D7011C96ED91FC911D97A10162E080817D
:101540000E945A1EC9824A82D7011C96ED91FC91D5
:101550001D97A10162E080810E945A1EBAE3BB87F9
:10156000D7011C96ED91FC911D97810121E0AE0100
:10157000455F5F4F61E080810E94D01D9982B8E095
:10158000BA83D7011C96ED91FC911D97A10162E0F1
:1015900080810E945A1EC7010E949213A5CF6B85BD
:1015A000C8010E94DA26FA9468CF6B85C8010E94B0
:1015B0007518FACE5C84F7010789D62CD01AAD2CA9
:1015C000B12C848995898A159B0508F46EC3B4E70C
:1015D000B98310E0085E1F4F0E0D1F1DD7011C962A
:1015E000ED91FC911D972D2DA10161E080810E945C
:1015F000D01DF7018789D80ED78A848995898A19E1
:101600009B09958B848B652DC7010E94B113D7016F
:1016100054968D919C915597A816B90608F4A6C3C7
:10162000F701868981FF60CFC7010E94CC36D701C0
:1016300056968C9156978B7F56968C93C7010E9435
:10164000921352CF80914A028823E9F010924A0205
:101650008FEF898300EB10E16FEC7FE1C1010E9405
:10166000411C009781F0FC01208D2F3FA9F7F894D1
:1016700026852111FCC278946FEC7FE1C1010E94A4
:10168000411C009781F780914B028823D9F1109279
:101690004B028FEF89830BEA10E16FE073E2C10127
:1016A0000E94411C009771F1DC011E962C911E973F
:1016B00023FFF3CFF894FC012685277F26877894B3
:1016C0009C01265E3F4F3F932F9350968C918695B9
:1016D000869586951F928F9389811F928F931F9372
:1016E0000F930E94C434EDB7FEB738960FB6F89446
:1016F000FEBF0FBEEDBF6FE073E2C1010E94411C4F
:10170000009791F680914F02882309F446C0109209
:101710004F028FEF898301EA10E162ED79E2C101A6
:101720000E94411CFC01892BC1F1848D80FFF5CF03
:10173000F894948125813681478154896589768919
:10174000A789B08DF18CE28CD38C848D8E7F848FB1
:101750007894DF92EF92FF92BF93AF937F936F9352
:101760005F934F933F932F939F9389811F928F9302
:101770001F930F930E94C4342DB73EB7205F3F4F95
:101780000FB6F8943EBF0FBE2DBF62ED79E2C101E6
:101790000E94411CFC01892B41F6A895809173029F
:1017A000882329F080E480936000109273021091E6
:1017B0003403112309F46DC000912A0200FD12C008
:1017C000153008F466C0B0907402CB2C8BEF8B0DF3
:1017D0008C3308F4D1C2EEE7CE1609F43EC40160A2
:1017E00000932A02412F50E06EE770E084E792E018
:1017F0000E94D03A009739F00E7F00932A02845756
:10180000924011E0180F01FD0CC0902F9260909350
:101810002A028AE395E09F938F930E94C4340F902D
:101820000F90B12EDD24DA9480E0EB2CF12C18C05F
:1018300090E0402F50E0481B590BB701680F791F0B
:101840006C587D4F8C589D4F0E94E63A10922602AC
:10185000802F9FB7F89420913403121761F09FBF37
:1018600010913403012F0B1919F79FB7F8942091A9
:1018700034031213F4CF009334039FBFF1E0DF125F
:1018800008C08AE395E09F938F930E94C4340F9021
:101890000F900E94422B6B017C012B893C894D8962
:1018A0005E89621B730B840B950B809033029090C2
:1018B0003402A0903502B09036023FEF831A930AAB
:1018C000A30AB30A8092330290923402A0923502A6
:1018D000B092360240902F02509030026090310258
:1018E00070903202460E571E681E791E40922F02DB
:1018F000509230026092310270923202611571058D
:1019000041E08407910508F00FC29B01AC010E94E1
:101910004F3ADC01CB0181509F4FAF4FBF4F892F12
:101920009A2FAB2FBB2740912B0250912C02609134
:101930002D0270912E02840F951FA61FB71F8417CA
:101940009507A607B70718F48FEF9FEFDC01809388
:101950002B0290932C02A0932D02B0932E02409163
:101960006F025091700260917102709172025C542A
:101970006B437B4F2F2DC416D506E606270B27FD9C
:101980001CCCBF93AF939F938F937F926F925F9284
:101990004F92BF92AF929F928F9284E191E19F9379
:1019A0008F930E94C4346DB77EB7625F7F4F0FB6CE
:1019B000F8947EBF0FBE6DBF80916F029091700250
:1019C000A0917102B0917202C816D906EA06FB0610
:1019D00098F480916B0290916C02A0916D02B0918D
:1019E0006E020196A11DB11D80936B0290936C0253
:1019F000A0936D02B0936E02C0926F02D0927002FB
:101A0000E0927102F092720210922B0210922C025C
:101A100010922D0210922E0210922F02109230027C
:101A2000109231021092320210923302109234025C
:101A30001092350210923602C0CB82E389831A825B
:101A40000E94422B6B017C01910142E061E0F801B0
:101A5000848595850E9468330E94422BDC01CB016E
:101A60008C199D09AE09BF0981329340A105B105CA
:101A700008F0EFC0998197FD49C1C818D908EA0854
:101A8000FB08D80153968C918823C1F02FEF280FC3
:101A900041E050E002C0440F551F2A95E2F7052EA1
:101AA000000C660B770BC40ED51EE61EF71E04C095
:101AB000F694E794D794C7948A95D2F7BFEFCB16E4
:101AC000D104E104F10408F085C12A8130E0220F3D
:101AD000331F892F90E0982F8827990F822B932B03
:101AE000F8012289E20FF11DC58A868B978B2D5F45
:101AF000D80152962C93CFCCCB8481E089831A8273
:101B00001B821C82910143E061E0848995890E94D7
:101B1000683369817A818B819C810E945F3ABB27FF
:101B2000A92F982F872F9C01AD01442755272F8778
:101B3000388B498B5A8B37E039831A82910142E006
:101B400061E0D50154968D919C9155970E94683320
:101B50008A81982F9C7F8F858170E92EE82A0F85D6
:101B6000188929893A89B401A301C5010E943C154D
:101B7000C1CBCB8419821A821B821C82910144E062
:101B800061E0F501848995890E94683369817A81D1
:101B90008B819C810E945F3AF62FF770EF2E8B01AC
:101BA0009C01B401A301C5010E943C15A3CB2B8568
:101BB0002F873CE039831A821B821C82910144E00A
:101BC00061E0848995890E94683369817A818B817B
:101BD0009C810E945F3A6B017C01BFE0B9831A824D
:101BE000910142E061E0F501848995890E946833A2
:101BF000970186013327CF84EA80B401A301C50190
:101C00000E943C1577CB8FE789838EEF8A830E94F1
:101C1000422B6F87788B898B9A8B910142E060E031
:101C2000F801848595850E9468330E94422B6B01E0
:101C30007C01DC01CB012F85388949895A89821BB7
:101C4000930BA40BB50B81329340A105B10508F4A9
:101C5000CEC0D80152968C91F801E80FF11D758A1B
:101C600092E0968B178A8D5FF801828B14CCFC0171
:101C7000318D308F7894AC01415F5F4F5F934F930C
:101C80001F922F9387891F928F9389811F928F9321
:101C90001F930F930E94C434EDB7FEB73A960FB668
:101CA000F894FEBF0FBEEDBFD7CCB7016E5E7F4F7D
:101CB000848595850E9461139C01ABEABAEA0E9473
:101CC000663A96958795969587959C01220F331FC6
:101CD000820F931F880F991FD70155969C938E935F
:101CE00054978A159B0508F497CC57960C916FCCA6
:101CF0002D853E85E217F30709F0EAC0809590E054
:101D00002A8530E08217930709F413C1D80152964F
:101D10008C91F801E80FF11D758A93E0A2CFCB8A70
:101D2000DC8AED8AFE8A70CA6115710550E185076B
:101D3000910508F009CE8B019C0101501F4F2F4FD8
:101D40003F4F5527432F322F212F0E944F3ADC015E
:101D5000CB0140912B0250912C0260912D02709189
:101D60002E02840F951FA61FB71FE9CD10922602E1
:101D7000B1E0B0933702B8CBD09075028D2D807F43
:101D8000803109F028CD1B1508F483CD8B2D90E010
:101D9000FC01ED58FD4F20812E3709F01CCDAC0120
:101DA0004F585D4F4A01FC01EE58FD4F9081DA011A
:101DB0008C91292F30E07901F82A6DEF6B0D84E7C3
:101DC00092E00E94582BE816F90609F448C1C09029
:101DD000740201CDF8018289E80FF11D758A91E046
:101DE000968B178A8D5FD80152968C9354CB80ECDA
:101DF00089831A82910142E061E0D8011C968D919D
:101E00009C911D970E94683349812A81942F9227C3
:101E1000892F82958F709827892F86958695892797
:101E2000982F9695892780FD98C046FFA6C0F80197
:101E30008289E80FF11D758A25E0268B178A8D5F50
:101E4000D80152968C9327CBD8011C96ED91FC912A
:101E50001D976480B281BF8723812F8B40E06B2F59
:101E6000722F862D0E94DE1E0E94422B6B017C0188
:101E700030E1C30ED11CE11CF11C0E94422B2F2D1E
:101E8000C616D706E806290B27FFF7CFF89441E0DE
:101E90006F857F89862D0E94DE1E0E94422B6B017A
:101EA0007C017894D101EAE01D92EA95E9F7F4E823
:101EB000F98323E22A8391014AE061E0D8011C966C
:101EC0008D919C911D970E946833FE01339685E0A9
:101ED0009191892728E030E005C0880F2150310911
:101EE00009F406CF87FFF9CF880FBDE18B27F6CF26
:101EF0005489658990892189328943898F5F858FCB
:101F000078946F935F934F933F932F939F9389811F
:101F10001F928F9387EE90E19F938F930E94C4341A
:101F2000EDB7FEB73A960FB6F894FEBF0FBEEDBF01
:101F3000B9C9898584FF18C08B8187FD60C0D8012D
:101F400052968C91F801E80FF11D758AB4E0B68BBA
:101F5000178A8D5FF801828B9ECAF8018289E80F8B
:101F6000F11D758A93E03CCFD80152968C91F8010F
:101F7000E80FF11D758AB5E0EACFC818D908EA085C
:101F8000FB08F80133893323C9F08FEF830F61E039
:101F900070E002C0660F771F8A95E2F7CB01092E29
:101FA000000CAA0BBB0BC80ED91EEA1EFB1E04C0F8
:101FB000F694E794D794C7943A95D2F77FEFC71673
:101FC000D104E104F10408F03FC0842F90E0AC019B
:101FD000542F4427550F550FF4E02F9FC0011124B3
:101FE000842B952BD80152962C91F801E20FF11D0C
:101FF000C58A868B978B2D5FF801228B4CCAC81837
:10200000D908EA08FB08F1E5CF16F5E5DF06E1049B
:10201000F104D0F42C8130E0220F331F90E0982F90
:102020008827990F822B932BD80152963C91F80167
:10203000E30FF11D2F8126952F73258B868B978BB0
:102040003D5FF801328B27CAD80152968C91F80176
:10205000E80FF11D758A91E004CE11E0E2CB802FEC
:102060008D7F80932A0280910902D81202C181E0FB
:102070008D0D8F70806180930902B6E78B16B2E0F8
:102080009B0609F008F4BEC0E6E7F2E0B98ECDB6D3
:10209000DEB68F010F5F1F4F2081222309F4E6C0B7
:1020A000E9E3F5E08491281708F0E0C030E0220F62
:1020B000331F220F331F220F331FF901E652FD4F4A
:1020C000E4914DB75EB764E0E69F401951091124D1
:1020D0000FB6F8945EBF0FBE4DBF8DB79EB7019689
:1020E000F901E452FD4F4491F901E352FD4F65912E
:1020F0007491FB01640F711DAC01D88ACF86988F53
:102100008F8B6E177F0709F482C08016910608F442
:102110006EC0A491A53028F1A73009F068C028014D
:10212000BFEF4B1A5B0AD801AC9082010A0D111D5A
:102130008016910608F45BC0B12CC12CD12CDA01B9
:10214000AD92BD92CD92DC921397612C712C1496B6
:102150004D925D926D927C921797485F5F4F3196DA
:10216000D0CF7A0184E0E80EF11C68019FEFC91A14
:10217000D90AD8011C91912F9F77492E512C612C9F
:10218000712C012F00760036A9F117FF3EC08601A1
:102190000F5F1F4FD80111978C91440C551C661C82
:1021A000771C440C551C661C771C440C551C661C83
:1021B000771C440C551C661C771C440C551C661C73
:1021C000771C440C551C661C771C440C551C661C63
:1021D000771C982F9F77492A87FDDACFDA014D9235
:1021E0005D926D927C921397A70131968ACF87E01A
:1021F0000E948339B0EE4B2A55245A94652C762CD4
:10220000C4CFB98CDD24D3940FCB8601E7CFCF8424
:10221000D8888F89988D40912702442331F0F901A5
:10222000E552FD4FE491E0FF11C021523D4FF9010D
:1022300025913491F90119950FB6F894DEBE0FBEC1
:10224000CDBE08151905E8F6F80121CF80912802C6
:102250001F928F93E3E2F1E1FF93EF930E94C43466
:102260000FB6F894DEBE0FBECDBEEBCF85E00E9468
:1022700083391B2DCECAFC0196899460968B1092EF
:10228000260281E08093370280E008950F931F9328
:10229000CF93DF938C0148E450E066E471E1FC01E8
:1022A00080810E941F2EEC018BE391E19B838A8346
:1022B00065EC71E3F80184810E944E2E9D878C8726
:1022C000DF91CF911F910F9108954F925F926F927E
:1022D0007F928F929F92AF92BF92CF92DF92EF92B6
:1022E000FF920F931F93CF93DF9300D0CDB7DEB74C
:1022F0006C0166E471E1DC018C910E944E2E7C0140
:102300000E94422B4B015C0182E78B83D7011C9614
:10231000ED91FC911D978E010F5F1F4F22E0AE01E2
:102320004D5F5F4F61E080810E94D01D0E94422B73
:102330002B013C0189818F718983F70181898F93FA
:1023400080898F9324893589ABEABAEA0E94663A7C
:1023500096958795969587959F938F9387891F92DA
:102360008F9387858F9386858F93D301C2018819B8
:102370009909AA09BB09BF93AF939F938F93BF920B
:10238000AF929F928F92D6018C911F928F938AEB7E
:1023900090E19F938F930E94C4340FB6F894DEBFF0
:1023A0000FBECDBF0F900F900F90DF91CF911F9177
:1023B0000F91FF90EF90DF90CF90BF90AF909F90E4
:1023C0008F907F906F905F904F9008957F928F9243
:1023D0009F92AF92BF92CF92DF92EF92FF920F93B4
:1023E0001F93CF93DF937C01DC01DC9169EA76E2F5
:1023F0008D2F0E944E2E8C01F701C481B084A184E0
:10240000DC0151969C90B2E09B1609F44FC00E94EB
:10241000422B6B017C012B2D3A2D4C2F61E0D80112
:102420001C968D919C911D970E9468330E94422BAF
:102430008B019C010C191D092E093F090132134023
:102440002105310558F54C2F50E0E1E09E1659F179
:10245000AF92BF925F934F93FF92EF92DF92CF9232
:102460001F92DF9389EC90E19F938F930E94C43475
:102470008DB79EB70C960FB6F8949EBF0FBE8DBF5A
:10248000DF91CF911F910F91FF90EF90DF90CF9050
:10249000BF90AF909F908F907F90089540E050E064
:1024A000E1E09E12D5CF6B017C01D2CFDC011C96FE
:1024B000ED91FC911D9794808280738040E0682D9F
:1024C000772D892D0E94DE1E0E94422B6B017C011C
:1024D000B0E1CB0ED11CE11CF11C0E94422B2F2D30
:1024E000C616D706E806290B27FFF7CFF89441E078
:1024F000682D772D892D0E94DE1E0E94422B6B01D4
:102500007C0178942B2D3A2D4C2F61E0F8018485C5
:1025100095850E9468334C2F50E09ACFCF93DF937C
:10252000DC011C96ED91FC911D971E969C911E97C7
:102530001F96CD91DC91509751962C9188E005C063
:102540009083660F9083815049F067FFF9CF28830D
:1025500060959083660F90838150B9F7DF91CF919A
:1025600008950F931F93CF93DF93EC0160ED72E119
:1025700088810E944E2E8C016AEF0E948E126C811F
:10258000611105C0DF91CF911F910F91089548858A
:102590005985C801DF91CF911F910F910C94E720CD
:1025A000CF92DF92EF92FF920F931F93CF93DF931F
:1025B0008C0142E150E060ED72E1FC0180810E94FB
:1025C0001F2EEC0160E0F80180850E94F0296C87E5
:1025D0007D878E8760E0F80184850E94F0296F87EF
:1025E000788B898B61E0F80184810E94F02968EF83
:1025F000CE010E948E1260E2CE010E948E12F894EB
:102600000E94422B6B017C0160E0CE010E948E1281
:102610000E94422B7894688379838A839B83DC01B0
:10262000CB018C199D09AE09BF09F801C088D1887A
:10263000E288F3888C159D05AE05BF0540F4C81AE5
:10264000D90AEA0AFB0ACC82DD82EE82FF82F80117
:10265000048915892689378980179107A207B3074E
:1026600040F4081B190B2A0B3B0B088719872A8794
:102670003B87DF91CF911F910F91FF90EF90DF90FB
:10268000CF9008950F931F93CF93DF93EC0160EDEC
:1026900072E188810E944E2E8C0168EF0E948E129A
:1026A0006C81611105C0DF91CF911F910F91089549
:1026B00048855985C801DF91CF911F910F910C94E6
:1026C000E720EF92FF920F931F93CF93DF9300D0F9
:1026D000CDB7DEB77B0122E72B838E010F5F1F4F43
:1026E00022E0AE014D5F5F4F61E0FC0180810E94FE
:1026F000D01D89818F7190E0982F88272A81822BA5
:10270000F701208131812817390710F491838083E4
:102710000F900F900F90DF91CF911F910F91FF902D
:10272000EF9008950F931F93CF93DF93EC01F894EC
:102730000E94422B088519852A853B85DC01CB0147
:10274000800F911FA21FB31F8C839D83AE83BF8315
:10275000CE010E941E377894DF91CF911F910F9187
:102760000895CF93DF93EC0148969F938F938F89C1
:102770001F928F938F858F938E858F931F926F9368
:1027800085EB90E19F938F930E94C4341F8A8E85BE
:102790009F8501969F878E878DB79EB70A960FB645
:1027A000F8949EBF0FBE8DBFDF91CF9108954F92D9
:1027B0005F926F927F928F929F92AF92BF92DF92C1
:1027C000EF92FF920F931F93CF93DF9300D01F924E
:1027D000CDB7DEB78C01DC01DC9066E471E18D2DB4
:1027E0000E944E2E7C01F80180859185A285B385DB
:1027F000892B8A2B8B2BC9F1C7010E94CC36F8019B
:1028000084819581A681B781F70184839583A6830E
:10281000B783F80180859185A285B385F70180870C
:102820009187A287B38781E0868B17861686118AE7
:10283000108A178A138A128A158A148AC7010E947D
:102840001E370F900F900F900F90DF91CF911F9137
:102850000F91FF90EF90DF90BF90AF909F908F907F
:102860007F906F905F904F900895C7010E94CC3683
:10287000D70156961C9283E289831A820E94422BCA
:102880004B015C01D7011C96ED91FC911D97AE01A7
:102890004F5F5F4F62E080810E945A1E0E94422B70
:1028A0002B013C018AE38C83D7011C96ED91FC91AE
:1028B0001D978E010D5F1F4F21E0AE014C5F5F4FF2
:1028C00061E080810E94D01D8B8184FD48C0D701CA
:1028D00057968C91882321F06D2DC7010E94B1136A
:1028E000B7016E5E7F4FF701848595850E94611365
:1028F000D70151962C9151972F9350962C912F934D
:102900009C01ABEABAEA0E94663A9695879596953D
:1029100087959F938F93F70187891F928F93878560
:102920008F9386858F93D301C20188199909AA09CB
:10293000BB09BF93AF939F938F93BF92AF929F9228
:102940008F921F92DF928AEB90E19F938F930E9468
:10295000C4340FB6F894DEBF0FBECDBF72CFF701FF
:10296000808991890196918B808BB1CFFC01109267
:10297000260281E080933802818D8160818F4481BD
:1029800055816681778180859185A285B385840F85
:10299000951FA61FB71F84839583A683B78381E005
:1029A00008950F931F93CF93DF938C0163E175E13B
:1029B000FC0180810E944E2EEC010E94CC36F80171
:1029C00084819581A681B7818C839D83AE83BF83EB
:1029D00080859185A285B38588879987AA87BB87DB
:1029E000892B8A2B8B2B29F4DF91CF911F910F918B
:1029F000089584859585A685B7858C879D87AE8744
:102A0000BF8780899189A289B389888B998BAA8B8A
:102A1000BB8B84898E8B1F8ACE01DF91CF911F9152
:102A20000F910C941E37FF920F931F93CF93DF9358
:102A3000EC01F88483E08F15E0F04AE150E063E1B7
:102A400075E188810E941F2E8C0186EB94E1F801CC
:102A5000938382836AE472E38C810E944E2EF80194
:102A6000958B848BF08EDF91CF911F910F91FF900A
:102A700008958DE10E9483398F929F92AF92BF9209
:102A8000CF92EF920F931F93CF93DF93EC01480106
:102A900059011F92EF92BF92AF929F920F937F9333
:102AA0006F935F934F931F92CF928DED90E19F9321
:102AB0008F930E94C4348DB79EB70E960FB6F894CC
:102AC0009EBF0FBE8DBFE11009C08C859D85AE8570
:102AD000BF8588169906AA06BB0688F48F898F5F82
:102AE0008F8B9E898917B0F4DF91CF911F910F9141
:102AF000EF90CF90BF90AF909F908F90089588896E
:102B00009989AA89BB8988159905AA05BB0530F35F
:102B10001F8AEACF809127028111FACF8CE10E94AF
:102B200083398BE10E948339FC01648180810C949C
:102B3000F0298F929F92AF92BF92FF920F931F93B3
:102B4000CF93DF938C0161E275E2FC0180810E94EA
:102B50004E2EEC010E94CC368F8D98A1892B09F066
:102B600058C0F80104811BA1FF24F394002339F11C
:102B70006C897D898E894F2D0E94DE1E21E0011116
:102B80001CC014FB882780F991E08927281741F0A1
:102B90008F89988DA98DBA8D892B8A2B8B2B89F4DF
:102BA00010711F291BA3DF91CF911F910F91FF90EF
:102BB000BF90AF909F908F90089520E0E2CFF12CCE
:102BC000D7CF0E94422B8F88988CA98CBA8CDC01BD
:102BD000CB01880D991DAA1DBB1D888B998BAA8BD3
:102BE000BB8B8C839D83AE83BF838BE695E29B83F7
:102BF0008A83107114601F291BA3CE01DF91CF912E
:102C00001F910F91FF90BF90AF909F908F900C9469
:102C10001E3782E10E948339CF93DF93EC0161E29A
:102C200075E288810E944E2EF894FC01278D30A118
:102C3000232B69F44C815D816E817F81FC01438F80
:102C4000548F658F768F7894DF91CF91089584E1CA
:102C50000E948339CF92DF92EF92FF920F931F93DE
:102C6000CF93DF938C0161E275E2DC018C910E94CD
:102C70004E2EEC010E94CA2EFC01D8011496CD9074
:102C8000DD90ED90FC901797C282D382E482F582AA
:102C900018964D915D916D917C911B97468357835A
:102CA00060877187F894118210828F8D98A1892B8B
:102CB00081F0A9A1BAA1ED93FC93FAA3E9A37894BA
:102CC000DF91CF911F910F91FF90EF90DF90CF9008
:102CD0000895FAA3E9A3F8A3EF8F8BA182FD25C085
:102CE000C88AD98AEA8AFB8A982F94609BA381FDBF
:102CF00010C0CE010E94CC36CC82DD82EE82FF82F3
:102D00008BE695E29B838A83CE010E941E377894DE
:102D1000D7CF4C815D816E817F81872F4C155D05FA
:102D20006E058F0987FFE5CFF2CF488959896A89F7
:102D30007B89972F4C155D056E059F0997FFD0CFB6
:102D400083E10E948339CF92DF92EF92FF92CF937B
:102D5000DF93FC01A4A1B5A1109761F41686178634
:102D6000108A118A80E0DF91CF91FF90EF90DF9081
:102D7000CF9008958D919C91119795A384A3169659
:102D80008D919C911797958784871296CD90DD90B1
:102D9000ED90FC901597AC01092E000C660B770B9B
:102DA0004C0D5D1D6E1D7F1D4087518762877387A7
:102DB00024A524FD43C04289538964897589C40EC2
:102DC000D51EE61EF71EC28AD38AE48AF58AC4821B
:102DD000D582E682F78218968D919C911997AC0165
:102DE00060E070E0440F551F661F771F46875787C6
:102DF000608B718B1A962C911A9720FD3FC040A1D1
:102E000051A162A173A1480F591F611D711D40A3FB
:102E100051A362A373A38091480290914902119635
:102E20009C938E93B0934902A093480281E0DF9176
:102E3000CF91FF90EF90DF90CF900895448155811E
:102E400066817781C40ED51EE61EF71EC482D58228
:102E5000E682F782892B31F1206224A718968D91A2
:102E60009C911997AC0160E070E046875787608BB2
:102E7000718B1A962C911A9720FFC1CFAC0160E09C
:102E800070E0C0A0D1A0E2A0F3A04C195D096E09CA
:102E90007F0940A351A362A373A3C58DD68D878DEF
:102EA0008883B9CF2F7DD9CFFC0192899460928B12
:102EB0001092260281E08093390280E008950F93FA
:102EC0001F93CF93DF938C0146E450E06FE577E1E9
:102ED000FC0180810E941F2EEC0184E597E19B8319
:102EE0008A836AE472E3F80184810E944E2E9D87F2
:102EF0008C87DF91CF911F910F9108958F929F92B0
:102F0000AF92BF92EF92FF920F931F93CF93DF93F5
:102F10001F921F92CDB7DEB77C016FE577E1FC0110
:102F200080810E944E2E8C0189EB89831A820E9437
:102F3000422B4B015C019E012F5F3F4F42E061E05D
:102F4000F801848595850E9468330E94422BF80120
:102F500021892F9320892F932A811F922F932389D0
:102F60001F922F9327852F9326852F93DC01CB016A
:102F700088199909AA09BB09BF93AF939F938F93AF
:102F8000BF92AF929F928F92F70180811F928F9391
:102F900083ED90E19F938F930E94C4340FB6F89411
:102FA000DEBF0FBECDBF0F900F90DF91CF911F916D
:102FB0000F91FF90EF90BF90AF909F908F900895EA
:102FC000CF93DF93EC0144969F938F938B891F924D
:102FD0008F938F858F938E858F931F926F938EEC37
:102FE00090E19F938F930E94C4341B8A8E859F85A6
:102FF00001969F878E878DB79EB70A960FB6F89475
:103000009EBF0FBE8DBFDF91CF910895FC0144811B
:10301000558166817781208580810C94DE2EDF9238
:10302000EF92FF920F931F93CF93DF93EC01D88819
:1030300083E08D15B0F16AE472E388810E944E2E20
:103040007C018AE090E00E94A1348C0161E08C81D7
:103050000E94A51EF80160837183828360E08885E9
:103060000E94F029F80163837483858360E08C8576
:103070000E94F029F801668377838087D186F70163
:103080008581982F967081F4F70111830083826007
:103090008583DF91CF911F910F91FF90EF90DF908B
:1030A00008958BE10E9483390E9491150F931F931D
:1030B000CF93DF93EC01F8940E94422B0885198589
:1030C0002A853B85DC01CB01800F911FA21FB31F16
:1030D0008C839D83AE83BF83CE010E941E3778947C
:1030E000DF91CF911F910F910895DF92EF92FF92A0
:1030F0000F931F93CF93DF93CDB7DEB729970FB60A
:10310000F894DEBF0FBECDBF8C01F62E9E012F5F5F
:103110003F4F89E0F90111928A95E9F782EF89839F
:1031200049E061E0F801848595850E946833F801E3
:10313000838990E09C012C5E3F4FE20FF31F3B819F
:10314000232F207F21F1203F11F12FEF24832383B0
:1031500022832183F801E80FF91F248BF80183896A
:103160008B5F838B8E3208F05EC0F801828981FD0F
:103170004FC029960FB6F894DEBF0FBECDBFDF91CA
:10318000CF911F910F91FF90EF90DF9008954D81A7
:10319000242F207FC9F52F81522F507F11F0503FEF
:1031A000A1F65885503989F659855F77E52E50E2AA
:1031B0005E1558F2D801A80FB91F5A8154965C9336
:1031C0008C8181838E818283822F90E03F71BC014C
:1031D000660F771F62957295707F7627607F7627DE
:1031E000362B3383880F991F880F991F80764F7174
:1031F000482B4483F80183898B5F838B4EEFD42E59
:10320000DE0C8E32B8F012C0203F09F09ECFC3CF43
:10321000C8010E94CC36F80182898B7F828BC8015D
:103220000E945618A6CF8EEFD82EE12C6F2DC80124
:103230000E94E017FEE1FE1530F4F80180899189C3
:103240000196918B808BFEE1FD1508F48ECF1092D4
:10325000260281E0809339028CCF4F925F926F9269
:103260007F928F929F92AF92BF92DF92EF92FF92E6
:103270000F931F93CF93DF931F921F92CDB7DEB7AB
:103280007C01FC01D0806FE577E18D2D0E944E2EF0
:103290008C01F70180859185A285B385892B8A2BC6
:1032A0008B2B99F1C8010E94CC36F701848195815E
:1032B000A681B781F80184839583A683B783F7013C
:1032C00080859185A285B385F80180879187A28743
:1032D000B38781E0828B118A108A17861686138A3B
:1032E000C8010E941E370F900F90DF91CF911F9160
:1032F0000F91FF90EF90DF90BF90AF909F908F90D5
:103300007F906F905F904F900895C8010E94CC36D7
:10331000F801128A8DE289831A820E94422B4B01A6
:103320005C019E012F5F3F4F42E060E0F801848521
:1033300095850E9468330E94422B2B013C0181E25B
:10334000F82E99EBE92E03C0FA94FF20C1F0E98230
:103350001A829E012F5F3F4F42E061E0F8018485B1
:1033600095850E9468338A818F7749F0813260F7B2
:103370006D2DC8010E947518FA94F110E8CFF8017C
:103380008389882331F06D2DC8010E94E017F80170
:103390008389F80191899F9390899F939A811F92C5
:1033A0009F931F928F9387858F9386858F93D301E9
:1033B000C20188199909AA09BB09BF93AF939F93CA
:1033C0008F93BF92AF929F928F921F92DF9283ED65
:1033D00090E19F938F930E94C4340FB6F894DEBFA0
:1033E0000FBECDBF80CFCF93DF93EC0160E17AE1D8
:1033F00088810E944E2EFC018C819D81AE81BF810F
:10340000892B8A2B8B2B51F420E0F89494A59D7F77
:10341000922B94A77894DF91CF91089522E0F5CF75
:103420000F931F93CF93DF938C014DE250E060E147
:103430007AE1FC0180810E941F2EEC01F801848555
:1034400018160CF041C064E06CA7F80184810E945A
:10345000F0296A8F7B8F8C8F60E0F80180850E9455
:10346000F0296D8F7E8F8F8F80E090E0A0E0B0EC30
:1034700088A399A3AAA3BBA3F80180899189A289F3
:10348000B3898E8B9F8BA88FB98F6BE070E0CE01D4
:1034900084960E94B02E8E899F89A88DB98D8997B8
:1034A000A105B10548F08AE19BE19B838A83DF9106
:1034B000CF911F910F9108958CA580618CA7DF910A
:1034C000CF911F910F91089560E0BECFCF93DF930E
:1034D000EC0160E17AE188810E944E2EFC018C8132
:1034E0009D81AE81BF81F894468557856089718939
:1034F000452B462B472B79F484839583A683B7838A
:10350000828B938BA48BB58B84A5877F84A77894BB
:10351000DF91CF91089586E10E9483390F931F9325
:10352000CF93DF938C0160E17AE1DC018C910E9402
:103530004E2EEC010E94CA2EFC01D80114964D912A
:103540005D916D917C91179742835383648375835A
:1035500018968D919C91199791878087892B09F4F2
:1035600066C0D8011C968D919C911D979783868388
:103570001286F8948CA5282F217081FB992790F949
:10358000291729F091E089279285916092874E85CD
:103590005F8568897989452B462B472B59F583FD33
:1035A00019C08CA7118210828CA19DA1892BA9F131
:1035B000AEA1BFA1ED93FC93FFA3EEA3CE010E94A9
:1035C000A316CE010E941E377894DF91CF911F91F0
:1035D0000F910895809148029091490291838083D0
:1035E000F0934902E09348027894DF91CF911F91C4
:1035F0000F9108958CA7118210828CA19DA1892B17
:1036000089F0AEA1BFA1ED93FC93FFA3EEA3789444
:10361000DF91CF911F910F910895FFA3EEA3FDA31A
:10362000ECA3CCCFFFA3EEA3FDA3ECA3CDCF87E10A
:103630000E948339CF92DF92EF92FF920F931F93F4
:10364000CF93DF93EC01EA8DFB8D8C8D80830E94FC
:10365000422B0E891F89288D398D6B017C01C00E8C
:10366000D11EE21EF31E8E859F85A889B989019718
:10367000A109B1098E879F87A88BB98B80FF0EC0E7
:10368000CC82DD82EE82FF8281E0DF91CF911F91BB
:103690000F91FF90EF90DF90CF900895892B8A2BA8
:1036A0008B2B59F1488559856A857B858A899B8949
:1036B000AC89BD89840F951FA61FB71F8A8B9B8B72
:1036C000AC8BBD8B0C851D85012E000C220B330BA2
:1036D000400F511F621F731F488759876A877B8776
:1036E0002B2F8C159D05AE052F0927FDC9CF8C8387
:1036F0009D83AE83BF8381E0C8CFCE010E94A31615
:10370000811102C080E0C1CF4C815D816E817F81DB
:10371000972F4C155D056E059F0997FFB6CF4C1985
:103720005D096E097F094038514C6F4F7F4F0CF097
:10373000A7CF88E10E9483390F931F93CF93DF9324
:103740008C018091420290914302892B09F04BC079
:103750006091410270E0623071052CF482E0809348
:10376000410262E070E0E0913D02F0913E024DB70F
:103770005EB741505F4F44275A959F01C0E0D0E0AB
:10378000C901860F971F4817590730F121969C01F0
:10379000C115A4E0DA07A1F78E1B9F0B0E94A1348C
:1037A000D0934302C09342029093400280933F0221
:1037B0000E94662EF80180819181A281B38180935D
:1037C000440290934502A0934602B0934702DF91D2
:1037D000CF911F910F910895209711F0C901DCCF6F
:1037E00080E10E9483398DE00E948339CF9320913C
:1037F0003B0230913C02232B91F4FC01C0818C2FC1
:1038000090E0880F991F880F991F0E94A134909310
:103810003C0280933B02C0933A02CF9108958AE024
:103820000E94833980914202909143029F938F932B
:1038300021E030912702311101C020E01F922F9327
:10384000209147022F93209146022F932091450209
:103850002F93209144022F9321E0892B09F420E03B
:103860001F922F9385E091E19F938F930E94C43420
:103870008DB79EB70C960FB6F8949EBF0FBE8DBF46
:103880000895CF93DF93EC01988140913A02A09183
:103890003B02B0913C020BC0FD0184E0989FE00D1B
:1038A000F11D1124208131812617370741F09F5FD8
:1038B000941790F380E090E0DF91CF910895988382
:1038C00082819381DF91CF91089580E20E948339B4
:1038D0000F931F93CF93DF93FC01A189B2898D9140
:1038E0009C911197928B818B16968D919C91179735
:1038F000C085D185228521113FC02FB7F894AC0136
:103900005527598348832FBF20914802309149029F
:1039100011963C932E93B0934902A0934802A1893B
:10392000B289109759F5278530898217930741F09E
:1039300083859485A585B6850097A105B10531F4E9
:1039400080E0DF91CF911F910F91089544815581BF
:1039500066817781840F951FA61FB71F8483958387
:10396000A683B78385E69CE19383828381E0DF9120
:10397000CF911F910F9108958883C6CF12964D91D4
:103980005D916D917C9115972785308982179307FA
:1039900041F083859485A585B6850097A105B1057D
:1039A00051F4448355836683778381E0DF91CF911F
:1039B0001F910F9108950481158126813781800F11
:1039C000911FA21FB31F2B2F84179507A607270B44
:1039D00027FFE7CF8FE10E948339EF92FF920F9389
:1039E0001F93CF93DF937C0167E67DE1DC018C912F
:1039F0000E944E2E8C010E94CA2EEC01F701848198
:103A00009581A681B7818A839B83AC83BD838085A2
:103A100091859F838E83F89419821882D8015196DC
:103A20008D919C915297892BB9F15396ED91FC9110
:103A30005497D183C0835496DC93CE93539780E000
:103A400090E07894892B39F4DF91CF911F910F91F9
:103A5000FF90EF900895C8010E94CC36D8011296CD
:103A60008D919C91139785569C41F1F08A819B81A1
:103A7000AC81BD8128E63CE1F80133832283848355
:103A80009583A683B783C801DF91CF911F910F91D2
:103A9000FF90EF900C941E37F801D48BC38BD28B20
:103AA000C18B81E090E0CDCF8A819B81AC81BD81CB
:103AB000F8014481558166817781272F481759077E
:103AC0006A072B0B27FFD6CF8FE10E948339CF9255
:103AD000DF92EF92CF93DF93EC01488559856A8599
:103AE0007B852C858C810E94DE2E6B01E82E45E1C2
:103AF00050E067E67DE188810E941F2EFC01C086B0
:103B0000D186E28688899989908B87878C899D895F
:103B1000AE89BF8983879487A587B68788E69CE1AD
:103B20009383828368E070E0CF014196DF91CF916B
:103B3000EF90DF90CF900C94B02ECF92DF92EF9267
:103B4000FF926B017C0109C00E94422B292F6C154A
:103B50007D058E052F0927FF09C08091BC0087FFD6
:103B6000F3CFFF90EF90DF90CF9008958FE20E9407
:103B7000833924EA2093BC000E949D1D8091B900E6
:103B800090E0A0E0B0E080319105A105B10521F001
:103B90000897A105B10509F408958EE20E948339C2
:103BA0007F928F929F92AF92BF92CF92DF92EF92CD
:103BB000FF920F931F93CF93DF93782EC62F942EEF
:103BC000B52E822E0E94422B6B017C0120E8C20E92
:103BD00028E3D21E21E0E21EF11CC701B6010E94BB
:103BE000B91D7092BB0084E88093BC00C701B60188
:103BF0000E949D1DAA24AA94AC0ECC23B1F0C92D1D
:103C0000DB2DB12C8FEFA81AB80AAC0EBD1E94E8BC
:103C1000992E89918093BB009092BC00C701B60198
:103C20000E949D1DAC16BD06A1F7C701B6010E94FA
:103C3000B91D872D81608093BB0084E88093BC0010
:103C4000C701B6010E949D1DDFEFD80D882009F144
:103C50005801CD2F84EC982ECC2369F09092BC00B3
:103C6000C701B6010E949D1D8091BB00F5018193A3
:103C70005F01C15099F7F801ED0FF11DEF0184E8E4
:103C80008093BC00C701B6010E949D1D8091BB00BE
:103C9000888384E98093BC00DF91CF911F910F91BD
:103CA000FF90EF90DF90CF90BF90AF909F908F905C
:103CB0007F900895BF92CF92DF92EF92FF920F9381
:103CC0001F93CF93DF93D82FC62FB42E152F0E94AA
:103CD000422B6B017C0120E8C20E28E3D21E21E0BA
:103CE000E21EF11CC701B6010E94B91DD093BB00B2
:103CF00084E88093BC00C701B6010E949D1D0FEFB0
:103D00000C0FCC23A9F0CB2DD12F10E00F5F1F4F4C
:103D10000C0F1D1F84E8B82E89918093BB00B092D0
:103D2000BC00C701B6010E949D1DC017D107A1F7B5
:103D300084E98093BC00DF91CF911F910F91FF9098
:103D4000EF90DF90CF90BF9008958036A0F567FD8B
:103D500032C0E82FE695E695E695F0E0EE0FFF1FFE
:103D6000E954F04FA591B491109729F1877021E0A3
:103D700030E0A90102C0440F551F8A95E2F7CA013D
:103D80004FB7F89412963C911297662381F0382B26
:103D9000282F209512963C93129711963C911197DB
:103DA000232311962C9311974FBFBD010895282FFF
:103DB00020953223EFCF8AE20E948339FB012FB78F
:103DC000F8949281411105C08095892382832FBF89
:103DD0000895892B82832FBF0895CF93DF93EC0141
:103DE0006A8D662309F453C0FC0150E031E020E005
:103DF000A38DB48D4C91958D942309F0532B2F5F97
:103E0000330F33962613F4CF2C85922F952729F064
:103E10008D85852780959823D9F4888D5D8787FDCA
:103E200003C0815070F1888F4C815D816E817F81EC
:103E300088859985AA85BB85840F951FA61FB71F06
:103E40008C839D83AE83BF8381E0DF91CF91089502
:103E5000982F909529238523822B8C879E859830D7
:103E6000E0F621E0290F2E87FE01E90FF11D87877B
:103E70001092260281E080934A028FEF888F5D873F
:103E8000D3CF1092260291E090934A02CCCF50E01B
:103E9000BBCFAF92BF92DF92EF92FF920F931F932F
:103EA000CF93DF93FC01A485B5859685478550891E
:103EB000E18822893389F488A588B6887789008DBE
:103EC000118DD28C808586279C9384FD20C085FD32
:103ED00022C086FD24C087FD26C09C93862F829534
:103EE000807F808768279C9364FD2AC065FD25C07C
:103EF00066FD1CC067FD1EC09C93DF91CF911F9192
:103F00000F91FF90EF90DF90BF90AF900895EA017E
:103F1000E88285FFDECFE901F88286FFDCCFE5018C
:103F2000788387FFDACFE801D882D7CFF501708395
:103F300067FFE2CFE801D882DFCFE901F882D8CF6E
:103F4000FA01E082D3CF0F931F93CF93DF938C01BD
:103F50006FEC7FE1DC018C910E944E2EFC01D801B8
:103F600014969C91828D9817B8F4292F30E0E901BE
:103F7000CC0FDD1F2C0F3D1FEF01C20FD31FF80127
:103F8000648580850E94A51E6B8F7C8F8D8FDF914D
:103F9000CF911F910F91089584E20E948339CF93AE
:103FA000FC01C481C930B8F44C2F50E09A01220FB3
:103FB000331F420F531F455E5F4F6FEC7FE1FC01E3
:103FC00080810E941F2EFC01C28F2DEE3EE13383C3
:103FD0002283CF91089585E20E9483395F926F9288
:103FE0007F928F929F92AF92BF92CF92DF92EF9289
:103FF000FF920F931F93CF93DF938C01FC01C0803E
:10400000D180E280F38084809580A680B78066248A
:104010006A94660E662301F1EA01712CFFEF6F1AB4
:104020007F0A640E751E59900E94422BDC01CB0161
:104030008C199D09AE09BF0988159905AA05BB050C
:1040400098F3652DC8010E94491F0E94422B6B0105
:104050007C01C615D70539F7F801C082D182E2820A
:10406000F382DF91CF911F910F91FF90EF90DF903E
:10407000CF90BF90AF909F908F907F906F905F9008
:1040800008950F931F93CF93DF93EC0169E770E2DC
:1040900088810E944E2E8C01FC016185728583858A
:1040A00041E00E94DE1E488559856C81C801DF9180
:1040B000CF911F910F910C94EE1F0F931F93CF93ED
:1040C000DF93EC0169E770E288810E944E2E8C013B
:1040D000FC0161857285838540E00E94DE1E488573
:1040E00059856C81C801DF91CF911F910F910C947C
:1040F000EE1FCF92DF92EF92FF920F931F93CF9319
:10410000DF93EC014BE150E069E770E288810E94A7
:104110001F2E8C0160E08C810E94F029F8016187DC
:104120007287838760E088850E94F029F8016487A0
:104130007587868760E08C850E94F029F801678783
:10414000708B818B60E088890E94F029F801628B76
:10415000738B848B60E08C890E94F029F801658B59
:10416000768B878B60E0888D0E94F029F801608F44
:10417000718F828FF8940E94422B6B017C0160E06A
:10418000C8010E94491F0E94422B7894DC01CB0198
:104190008C199D09AE09BF09CC8CDD8CEE8CFF8C8F
:1041A0008C159D05AE05BF0548F4C81AD90AEA0A60
:1041B000FB0AF801C482D582E682F782DF91CF91B3
:1041C0001F910F91FF90EF90DF90CF9008954F9245
:1041D0005F926F927F928F929F92AF92BF92CF9297
:1041E000DF92EF92FF920F931F93CF93DF938C0197
:1041F000562E3A01FC0180809180A280B380C48059
:10420000D580E680F780EA012196FA014080642D8E
:10421000607F0E948E120E94422BDC01CB01881924
:104220009909AA09BB098C159D05AE05BF0598F330
:10423000642D6295607FC8010E948E120E94422BFD
:104240006B017C01F80180849184A284B384F1E045
:104250005F1639F15A945A94852D90E00296680EB3
:10426000791E5990652D607FC8010E948E120E94B0
:10427000422BDC01CB018C199D09AE09BF098815C1
:104280009905AA05BB0598F3652D6295607FC80165
:104290000E948E120E94422B6B017C01C615D7052D
:1042A00001F7F801C082D182E282F382DF91CF91DF
:1042B0001F910F91FF90EF90DF90CF90BF90AF9044
:1042C0009F908F907F906F905F904F900895CF92C6
:1042D000DF92EF92FF92CF93DF93FC01A085B1852F
:1042E00082858C93968581E089278687C82FC17047
:1042F000C688D788E08CF18C97859F5FD1899D1700
:1043000008F05FC0892F869586958695DF01A80FF6
:10431000B11D5A962C9130E0892F877002C03595D7
:1043200027958A95E2F72170B701A601C217A9F077
:1043300033C0892F869586958695DF01A80FB11D1C
:104340005A962C9130E0892F877002C035952795B9
:104350008A95E2F72170C2131FC04C0D5D1D6E1DC2
:104360007F1D9F5F9D1728F382E694E293838283EB
:1043700084819581A681B781480F591F6A1F7B1FD1
:10438000448355836683778381E0DF91CF91FF90EB
:10439000EF90DF90CF900895978784819581A681D3
:1043A000B781480F591F6A1F7B1F4483558366835B
:1043B000778381E0DF91CF91FF90EF90DF90CF90F6
:1043C0000895B701A601D0CFCF92DF92EF92FF926E
:1043D0000F931F93CF93DF93EC01E885F9858A85CE
:1043E00080830E94422B3E8521E023272E872F8544
:1043F0002F5F2F87213009F45CC02530E0F40C8159
:104400001D812E813F814A895B896C897D89DB0111
:10441000CA01800F911FA21FB31F8C839D83AE839F
:10442000BF8381E0DF91CF911F910F91FF90EF90BB
:10443000DF90CF900895CC80DD80EE80FF80AB01CF
:10444000BC014C195D096E097F098E899F89A88D71
:10445000B98D481B590B6A0B7B0BDB01CA01029615
:10446000A11DB11DB7FD34C0B595A795979587954A
:10447000B595A795979587950A891B892C893D89BC
:10448000800F911FA21FB31F8E8B9F8BA88FB98F98
:1044900027E631E23B832A834C0D5D1D6E1D7F1D97
:1044A000840F951FA61FB71F8C839D83AE83BF8388
:1044B000B8CF0C811D812E813F81AB01BC01401B17
:1044C000510B620B730B4E8B5F8B688F798F9BCF79
:1044D000DB01CA010596A11DB11DC6CFEF92FF9267
:1044E0000F931F93CF93DF937C016FE073E2FC0186
:1044F00080810E944E2EEC011E8511FF07C0DF91C6
:10450000CF911F910F91FF90EF900895F7010481D3
:1045100060857185F4840B3008F045C0FAE0FF1522
:1045200008F441C0402F50E04A960E94DD3A1F86B1
:10453000117312601E87802F880F880F880F898B58
:10454000FF0CFF0CFF0CF88A002349F08A8D8F7353
:104550008A3229F484EE91E29B838A830CC08A8993
:104560009B89AC89BD898E8B9F8BA88FB98F87E67D
:1045700091E29B838A83F8940E94422BDC01CB0159
:104580008058934FAF4FBF4F8C839D83AE83BF83C3
:10459000CE010E941E377894DF91CF911F910F9129
:1045A000FF90EF90089586E20E9483390F931F9346
:1045B000CF93DF938C016FEC7FE1DC018C910E9443
:1045C0004E2EEC01D8011496EC918F898E0F8F8BB3
:1045D000F8948E85E817D0F48E1BF0E03F96EC0F30
:1045E000FD1FDE011F962FEF280F30E0205F3F4FA9
:1045F0002C0F3D1F91919D93A217B307D9F78E877A
:104600007894DF91CF911F910F9108951E868EEFC0
:10461000888F7894DF91CF911F910F9108957F92A9
:104620008F929F92AF92BF92CF92DF92EF92FF92C2
:104630000F931F93CF93DF93EC0144E250E06FE0C0
:1046400073E288810E941F2E8C0178848C809D806B
:10465000AE80BF80CC84DD84EE84FF8461E0711085
:1046600001C060E0882D0E94A51EF8016387748751
:10467000858761E08C2D0E94F029F80160877187A1
:10468000828788899989AA89BB89828B938BA48B1D
:10469000B58B711018C091E08C149D04AE04BF045A
:1046A000C1F080E0892BF8018687DF91CF911F91BF
:1046B0000F91FF90EF90DF90CF90BF90AF909F90C1
:1046C0008F907F90089591E18C149D04AE04BF04F7
:1046D00041F780E2E7CF0F931F93CF93DF938C01D5
:1046E0006FEC7FE1FC0180810E944E2EEC010E9464
:1046F000CC36F80184819581A681B7818C839D8316
:10470000AE83BF834085518562857385488759870D
:104710006A877B8780898D878C871E861F8A8EEFAC
:10472000888F8485898F87FD10C0452B462B472BAA
:1047300029F4DF91CF911F910F910895CE01DF9160
:10474000CF911F910F910C941E3783E20E94833901
:10475000CF93DF93EC018E8585FD0DC0688579854B
:104760008A8541E00E94DE1E8E85807381608E877F
:10477000DF91CF910895E885F9858A852FB7F89460
:104780009281982B92839181892B81832FBF8E8573
:10479000807381608E87DF91CF910895CF93DF93EF
:1047A000FC01A385B4855C918785982F977021E0E3
:1047B00030E001C0220F9A95EAF7982F96959695CA
:1047C0009695DF01A90FB11D5A969C915A97458580
:1047D0004523E1F0292B5A962C938F5F90898917F6
:1047E000E8F4878744815581668177818689978936
:1047F000A08DB18D840F951FA61FB71F848395834D
:10480000A683B78381E0DF91CF9108952095292376
:104810005A962C938F5F9089891718F3EF01CF0177
:104820000E94A8238E8588608E871092260281E0E0
:1048300080934B0280E0DF91CF910895CF93DF9377
:10484000FC01A385B4859C9185858923E9F0868543
:1048500084608687878591E0980F9787803408F574
:10486000448155816681778186899789A08DB18D34
:10487000840F951FA61FB71F84839583A683B783D4
:1048800081E0DF91CF910895868582FFE3CF17867F
:104890008EEC93E293838283CF01DF91CF910C94CE
:1048A000CE23EF01108ACF010E94A8238E85886055
:1048B0008E871092260281E080934B0280E0DF9188
:1048C000CF9108950F931F93CF93FC01C089CC2300
:1048D000E9F1868585FD23C017868EE194E29383F6
:1048E000828386899789A08DB18D880F991FAA1F11
:1048F000BB1F880F991FAA1FBB1F4481558166816A
:104900007781840F951FA61FB71F84839583A68385
:10491000B783C1E08C2FCF911F910F910895A3858C
:10492000B48595852FB7F89484FF21C012968C9199
:104930001297892B909512968C93129711968C91C1
:104940001197982311969C932FBFC6CF8C010E947C
:10495000A823F8018685886086871092260281E068
:1049600080934B028C2FCF911F910F910895129637
:104970008C91129790958923DECF0F931F93FC01A2
:10498000A489B58986898C9393A181E0892783A323
:10499000448155816681778180FF12C00085118531
:1049A00022853385400F511F621F731F82FD12C085
:1049B000448355836683778381E01F910F91089527
:1049C0000485158526853785400F511F621F731F8B
:1049D00082FFEECF0089118922893389872F401702
:1049E00051076207830B87FDE3CF8BE695E2938344
:1049F0008283B901A801448355836683778381E06C
:104A00001F910F9108950895FC018081A481B581C3
:104A100040855185628573859FB7F894813061F038
:104A2000823019F04C939FBF08954D935D936D9321
:104A30007C9313979FBF089511965C934E939FBFED
:104A40000895CF92DF92EF92CF93DF93EC0161E074
:104A500088859985AA85BB85892B8A2B8B2B09F4A0
:104A600060E08C810E94F0296B01E82E44E250E066
:104A700061E275E288810E941F2EFC01C48AD58AFA
:104A8000E68A21E0488559856A857B85452B462B3A
:104A9000472B09F420E04C855D856E857F85452B8D
:104AA000462B472BB1F430E0232BFC0123A348898C
:104AB00059896A897B89478B508F618F728F6AE031
:104AC00070E04F96DF91CF91EF90DF90CF900C94F4
:104AD000B02E30E1E9CF8F929F92AF92BF92CF92EA
:104AE000DF92EF92FF921F93CF93DF93EC01EF8C55
:104AF000F8A0E114F10409F4F0C0F701808191817C
:104B000098A38F8F86809780A084B18411E0811450
:104B10009104A104B10409F4A1C06C897D898E8936
:104B2000412F0E94DE1E8091480290914902F701B8
:104B300091838083F0924902E092480281149104AB
:104B4000A104B104E9F08B8D9C8DAD8DBE8D8816CE
:104B50009906AA06BB06A0F44F89588D698D7A8DF7
:104B6000411551056105710509F45BC08C819D817A
:104B7000AE81BF81480F591F6A1F7B1F166022C07C
:104B80008BA131E081149104A104B10409F068C043
:104B900084FB992790F921E09227391709F443C043
:104BA0004F89588D698D7A8D4115510561057105C3
:104BB000D1F18C819D81AE81BF81480F591F6A1F41
:104BC0007B1F1460EF8DF8A1309709F077C02BA1FF
:104BD000488B598B6A8B7B8B2071212B2BA311FF68
:104BE0005FC0880D991DAA1DBB1D12FD52C02DEB83
:104BF00034E23B832A838C839D83AE83BF83888684
:104C00009986AA86BB868B8D9C8DAD8DBE8D8819AD
:104C10009909AA09BB098C879D87AE87BF8781E068
:104C200011C012608BA1EF8DF8A13097D9F4188ACA
:104C3000198A1A8A1B8A8071812B8BA3812F82701B
:104C400011FD34C0DF91CF911F91FF90EF90DF9065
:104C5000CF90BF90AF909F908F90089510E05DCF60
:104C600030E096CF4281538164817581488B598BA6
:104C70006A8B7B8B8071912F9460892B8BA311FFA2
:104C80000FC08C819D81AE81BF81880D991DAA1DA9
:104C9000BB1D2B2F84179507A607270B27FDA7CF32
:104CA0004C835D836E837F8381E0CCCF40E050E016
:104CB000BA018C819D81AE81BF8193CFC280D380A8
:104CC000E480F580872F4C155D056E058F0987FD03
:104CD00007C08BA1B701A601C9CF85E10E94833926
:104CE00083E10E948339FC0185818F9384818F93B6
:104CF00080811F928F9380E091E19F938F930E9418
:104D0000C4340F900F900F900F900F900F90089554
:104D1000FC01808982FD19C08460808B109226027C
:104D200081E080934C024481558166817781808542
:104D30009185A285B385840F951FA61FB71F848315
:104D40009583A683B78381E0089584898F5F848BE0
:104D5000E5CFFF920F931F93CF93DF93EC01F8847D
:104D600083E08F1508F145E450E069EA76E2888136
:104D70000E941F2E8C0188E896E2F80193838283BB
:104D80006AE472E38C810E944E2EF8019587848735
:104D9000FC01858180FF0BC0F801F18ADF91CF9182
:104DA0001F910F91FF90089582E20E94833981E262
:104DB0000E948339CF93DF93EC0145969F938F93A5
:104DC0008A891F928F938F858F938E858F931F92E1
:104DD0006F938FEB90E19F938F930E94C4341A8A54
:104DE0008E859F8501969F878E878DB79EB70A9681
:104DF0000FB6F8949EBF0FBE8DBFDF91CF9108957F
:104E0000FF920F931F93CF93DF938C01FC01F080EF
:104E100069EA76E28F2D0E944E2EEC010E94CC367C
:104E2000188AF80180859185A285B385892B8A2B04
:104E30008B2B01F58A89811118C08F858F938E8500
:104E40008F931F92FF9284EC90E19F938F930E9427
:104E5000C4340F900F900F900F900F900F90DF9130
:104E6000CF911F910F91FF9008956F2DCE010E9459
:104E7000DA26E3CFF80184819581A681B7818C83FE
:104E80009D83AE83BF8380859185A285B385888706
:104E90009987AA87BB871F861E861A8A84858B8B73
:104EA000CE01DF91CF911F910F91FF900C941E378F
:104EB00049E150E068E577E2FC0180810E941F2E05
:104EC00027E73BE2FC013383228322E93BE233877D
:104ED00022870895CF93DC0114969C91149720E0CB
:104EE00030E0C22FF901E15CFA4FE4919E1741F0E6
:104EF0002F5F3F4F20313105A1F78CE20E948339AB
:104F000087E980937A002830E8F420917E0081E0E0
:104F100090E00C2E01C0880F0A94EAF7822B809350
:104F20007E004FE150E06AE677E28C910E941F2EEE
:104F3000FC0180EB97E293838283C28F81E0858FAF
:104F4000CF91089520917D003C2F377081E090E053
:104F500001C0880F3A95EAF7822B80937D00E1CF5C
:104F6000FC0180917A0086FF0EC084819581A68124
:104F7000B7818853984FAF4FBF4F84839583A683E3
:104F8000B78381E00895828D90910802981781F08F
:104F90009F3F59F780930802982F987090937B0059
:104FA0008770806480937C0087ED80937A00DDCFEA
:104FB0008FEF809308022091780030917900858DE1
:104FC000968D891780F544895589240F351F8F5F89
:104FD000358B248B858F891760F1868997892817EF
:104FE0003907C8F1808D918D82179307A0F1138E38
:104FF0001092260281E080934E0240895189628995
:10500000738980859185A285B385840F951FA61F1E
:10501000B71F808B918BA28BB38B84839583A683E0
:10502000B78381E0089581E0358B248B858F8917C4
:10503000A0F6448155816681778184859585A68512
:10504000B785840F951FA61FB71F84839583A683FA
:10505000B78381E00895838D8F5F838F948D891747
:1050600038F2809127028111C2CF8AE10E948339F0
:10507000EF92FF920F931F93CF93DF938C0168E51C
:1050800077E2FC0180810E944E2EEC01F8948E891B
:1050900080FF13C07E01F8E0EF0EF11CC7010E94F3
:1050A000CC36F80184819581A681B7818C879D8754
:1050B000AE87BF87C7010E941E377894DF91CF91DA
:1050C0001F910F91FF90EF9008951F93CF93DF935F
:1050D000EC01162FAC89BD891097B9F01296ED91AD
:1050E000FC9113978D919C9111979D8B8C8B1196B0
:1050F0001C921E9213961C921E921297612FCD0144
:105100001995AC89BD89109749F71092260281E064
:1051100080934D02DF91CF911F910895EF92FF92FE
:105120001F93CF93DF937C01FC01108168E577E248
:10513000812F0E944E2EEC01F8948E8980FF09C0C9
:10514000F70164816F8B8A7F84608E8BCE010E9411
:105150006528CE010E94CC36CE0108960E94CC363E
:105160001E8A8F8978941F921F921F921F921F92FE
:105170008F931F921F921F921F938CEE90E19F932B
:105180008F930E94C4348DB79EB70C960FB6F894D7
:105190009EBF0FBE8DBFDF91CF911F91FF90EF900B
:1051A0000895CF93DF93EC010E94CC36CE01089690
:1051B0000E94CC36EC89FD89309751F09081818135
:1051C0001382128211821082E92FF82F3097B1F7E3
:1051D0001D8A1C8A188E1F8A1E8ADF91CF9108951E
:1051E0000F931F93CF93DF938C0168E577E2FC0167
:1051F00080810E944E2EEC01F8940E94D12881E01B
:105200008E8BF80184819581A681B7818C839D83E3
:10521000AE83BF8380859185A285B385888B998B6A
:10522000AA8BBB8B892B8A2B8B2B19F0CE010E946A
:105230001E37F8018485888F7894DF91CF911F9174
:105240000F910895B0990FC0809150029091510232
:105250000196109205021092040290930702809327
:10526000060281E0089581E086BB80915002909112
:1052700051020196909351028093500220E030E851
:105280003093050220930402909307028093060254
:1052900081E00895CF93DF93FC0184819581A681FD
:1052A000B7814489558966897789C58DD68D3881BE
:1052B000C42FC170278D232331E009F430E0C317D8
:1052C00061F04F5F5F4F6F4F7F4F448B558B668B05
:1052D000778B808F918FA28FB38F4089518962899C
:1052E0007389272F481759076A072B0B27FF18C008
:1052F000248D2160248F4485558566857785840FAC
:10530000951FA61FB71F808B918BA28BB38B10921A
:10531000260281E080934F0284819581A681B78126
:105320004085518562857385840F951FA61FB71F21
:1053300084839583A683B78381E0DF91CF9108951D
:105340000F931F93CF93DF938C0162ED79E2FC0101
:1053500080810E944E2EEC010E94CC36F80184819F
:105360009581A681B7818C839D83AE83BF83408561
:10537000518562857385488759876A877B8744850D
:105380005585668577854C875D876E877F87888B97
:10539000998BAA8BBB8BCE01DF91CF911F910F917F
:1053A0000C941E370F931F93CF93DF93EC0140E2D1
:1053B00050E062ED79E288810E941F2E8C016885A1
:1053C0008C810E94A51EF801658F768F878F8AE4F5
:1053D00099E293838283DF91CF911F910F9108957A
:1053E000803678F5E82FE695E695E695F0E0EE0F45
:1053F000FF1FE954F04FA591B491109711F18770F8
:1054000021E030E0A90102C0440F551F8A95E2F760
:10541000CA013FB7F89412962C91129761110FC0F0
:105420004095242312962C93129711962C91119744
:10543000282B11962C9311973FBFBD010895242B63
:10544000F1CF8BE20E9483391F920F920FB60F9219
:1054500011240BB60F92EF92FF920F931F932F938D
:105460003F934F935F936F937F938F939F93AF93EC
:10547000BF93CF93DF93EF93FF930DC07A01809199
:105480008400909185008E199F0997FD7CC07894C7
:10549000B2999AC0F894C0912202D0912302EA8175
:1054A000FB81309709F0ADC0EA8DFB8D2C8D2083F8
:1054B0008E859F85019709F4C1C09F878E87888557
:1054C0009985AA85BB854C815D816E817F81480F5E
:1054D000591F6A1F7B1F4C835D836E837F832083EC
:1054E0002CA525FF0EC00C851D85012E000C220B5E
:1054F000330B800F911FA21FB31F88879987AA873C
:10550000BB87E881F9810481158126813781872F46
:10551000401751076207830B87FDB0CF7801F093E6
:105520002302E0932202A0912402B0912502149656
:105530000D911D912D913C911797872F4017510781
:105540006207830B87FFFD01DF010190F081E02DF1
:105550000481158126813781872F40175107620703
:10556000830B87FFF1CFF983E883CD93DC93D0934E
:105570002502C093240280918400909185008E19A9
:105580009F0997FF84CF863A9F4F0CF06AC0F09234
:105590008900E0928800FF91EF91DF91CF91BF9158
:1055A000AF919F918F917F916F915F914F913F91BB
:1055B0002F911F910F91FF90EF900F900BBE0F90C6
:1055C0000FBE0F901F901895F894809184009091D1
:1055D00085009701281B390B2038314CDCF12091D4
:1055E000260227FF43C09C01205C304E30938B0085
:1055F00020938A0024E026BB909389008093880042
:105600003ECFCE0119954C815D816E817F818111E4
:1056100078CFE881F981E480F580F0932302E0936C
:1056200022028091240290912502C817D90709F01F
:1056300026CFF0932502E093240221CFCE010E94D1
:10564000A316EA8DFB8D9C8D90834C815D816E81CC
:105650007F81DDCF209127022111C1CF89E20E94F5
:1056600083397894B299B0CFF89409CF9C0128542B
:10567000344F30938B0020938A0024E026BB7C01BA
:10568000F39485CF2FB7F8946091840070918500D2
:105690008091500290915102B09902C02FBF08959D
:1056A0002FBF7F3FE1F30196089578940E949C37C5
:1056B0002FEF260F6623C1F0FC018FEF9FEF319192
:1056C0008327082E8295807F8025092E982F82952A
:1056D0008F700826869598278927880F880F880F4E
:1056E0008025215060F708958FEF9FEF0895FC010A
:1056F00086898460868B1092260281E080934D0219
:10570000448155816681778180899189A289B38995
:10571000840F951FA61FB71F84839583A683B78325
:1057200081E00895FC013897968990FF08C0608D4C
:10573000678B9A7F9460968BCF010E94652880E0EA
:105740000895FC01A085B1859C9182858923D1F0C3
:10575000818D80958170C9F4838D815031F1838F63
:10576000448155816681778187859089A189B28935
:10577000840F951FA61FB71F84839583A683B783C5
:1057800081E00895818D817039F38CEE9BE29383E3
:10579000828383899489A589B68984839583A68326
:1057A000B783828D838F81E00895A789B08D569647
:1057B0009C915697892F817090FFE3CF648D579607
:1057C0006C9357979A7F946056969C935697CD0109
:1057D0000E94652880E008950F931F93FC01A08527
:1057E000B1859C910481158126813781438554853B
:1057F00065857685400F511F621F731F828589233F
:1058000061F0818D8095817059F044835583668362
:10581000778381E01F910F910895818D8170A9F7A1
:10582000438B548B658B768B81EA9BE293838283D7
:10583000CF011F910F910C94A12BCF93FC01C0813C
:105840006FE87CE28C2F0E944E2EFC01F894818D33
:1058500033894489558966897894A085B1852C91CE
:105860009285922321E009F420E01F922F936F93F9
:105870005F934F933F93869581701F928F931F92F2
:10588000CF9381EF90E19F938F930E94C4348DB7A3
:105890009EB70C960FB6F8949EBF0FBE8DBFCF91EA
:1058A0000895CF93FC01C08160E17AE18C2F0E94C2
:1058B0004E2EFC01F89480A191A1A2A1B3A124A530
:1058C000468557856089718924FD04C07695679562
:1058D00057954795841B950BA60BB70BB7FF07C0D1
:1058E000B095A095909581959F4FAF4FBF4F7894FD
:1058F000B054BF93AF939F938F931F92CF9386EF34
:1059000090E19F938F930E94C4348DB79EB7089601
:105910000FB6F8949EBF0FBE8DBFCF9108950F9321
:105920001F93CF93DF93EC014DE150E06FE87CE2F1
:1059300088810E941F2E8C0168858C810E94A51E83
:10594000F801608771878287DF91CF911F910F9156
:1059500008950F931F93CF93DF938C016FE87CE240
:10596000FC0180810E944E2EEC010E94CC36F80191
:1059700084819581A681B7818C839D83AE83BF830B
:1059800080859185A285B3858F87988BA98BBA8BEB
:1059900084858A8F882361F1F80140895189628961
:1059A00073894B875C876D877E872CEE3BE23B8358
:1059B0002A838B8F84899589A689B789892B8A2B1D
:1059C0008B2BA1F482E0898F68E577E2F801808D66
:1059D0000E944E2E988F8F8BF801848D8C8FCE0174
:1059E000DF91CF911F910F910C941E3783E0EBCF85
:1059F000188E1F8A198EDF91CF911F910F910895F4
:105A00000F931F93CF93DF938C01EC01A897CE01E6
:105A10000E94CC361C821D821E821F821A8A1B8A1B
:105A20001C8A1D8A88A199A1AAA1BBA12CA54E857B
:105A30005F856889798924FD04C0769567955795B7
:105A40004795841B950BA60BB70BB7FD40C0B095CF
:105A5000A095909581959F4FAF4FBF4F88A399A375
:105A6000AAA3BBA31E861F86188A198A24712860E0
:105A70002CA76D8D7E8D8F8D40E00E94DE1E4CA583
:105A800044706A8D7B8D8C8D0E94DE1ED801149728
:105A9000ED91FC9111973097A9F0409148029091B7
:105AA000490201C0F9012081318140839183F09343
:105AB0004902E09348024E2F9F2F2115310591F79F
:105AC0001D921C92DF91CF911F910F910895B09577
:105AD000A095909581959F4FAF4FBF4FB8CF0F9333
